:103C00000C942A1E0C94471E0C94471E0C94471EBD
:103C10000C94471E0C94471E0C94471E0C94471E90
:103C20000C94471E0C94471E0C94471E0C94471E80
:103C30000C94471E0C94471E0C94471E0C94471E70
:103C40000C94471E0C94471E0C94471E0C94471E60
:103C50000C94471E11241FBECFE5D4E0DEBFCDBFBC
:103C600010E0A0E6B0E0ECEBFFE302C005900D929F
:103C7000A436B107D9F711E0A4E6B0E001C01D9267
:103C8000A436B107E1F70E94951E0C94DC1F0C943A
:103C9000001E5D9BFECF8CB90895DF9AD79A40E154
:103CA00020E030E08BB380588BBBC9010197F1F75E
:103CB0004150C1F7E0E0F0E00995089580E090E818
:103CC000A0E7B0E05F9905C00197A109B109D1F75C
:103CD00004C00097A105B10511F40E944D1E8CB1DE
:103CE00008951F93182F03C00E945E1E11501123C8
:103CF000D9F71F9108951F93CF93DF93EC01162FEF
:103D00000E945E1E803269F484E10E94491E04C054
:103D100089910E94491E11501123D1F780E10E9420
:103D2000491EDF91CF911F910895CF93DF9300D06B
:103D30000F92CDB7DEB7F89410BC8FE289B988E155
:103D40008AB986E880BDD89AD09A40E151E020E057
:103D500030E08BB385278BBBC9010197F1F7415048
:103D6000C1F7F3E07F2E6624639455245394A5E0B5
:103D70004A2EB1E13B2E0E945E1E803309F4C0C082
:103D8000813479F40E945E1E813831F0823831F03E
:103D9000803819F582E003C0598220C082E189830E
:103DA0001DC0823411F484E103C0853421F485E020
:103DB0000E94711EA5C0803509F4A2C0813541F46E
:103DC00080E090E060E00E947B1E0E944D1ED3CFF9
:103DD000863541F484E00E94711E1982CE0101965D
:103DE00061E0CBC0853539F40E945E1EC82E0E946A
:103DF0005E1ED82E85C0843609F086C00E945E1EE5
:103E0000082F0E945E1EB82E0E945E1E882EEB2C8C
:103E1000F02E84E690E06FEF70E040E051E00E9409
:103E2000C01FE4E6AE2EE0E0BE2EAE0CBF1C04E6E2
:103E300010E005C00E945E1EF80181938F010A15F3
:103E40001B05C1F7F5E48F1659F010C0C6010894A0
:103E5000C11CD11CF80161918F010E94CF1F02C0CB
:103E600004E610E00A151B0589F74AC0CC0CDD1CDE
:103E7000F0E8EF16F10418F420E8E22EF12C64E6E5
:103E800070E0E199FECFF60170925700E89507B611
:103E900000FCFDCFDB0140E050E08C9190E01296F9
:103EA0009A012C0D3D1DFB01E40FF51F11811B83B1
:103EB0001A82EA81FB818E2B9F2BF9010C01609203
:103EC0005700E89511244E5F5F4F4038510529F7A0
:103ED000F60140925700E89507B600FCFDCF3092FE
:103EE0005700E89560587F4F80E89FEFE80EF91E75
:103EF000E0E8F0E0CE0EDF1EE114F10409F0C1CFDE
:103F000080E090E060E039C0843789F50E945E1E51
:103F1000082F0E945E1EE82E0E945E1E853421F04E
:103F2000CC0CDD1CBB2402C0BB24B3948E2C902E81
:103F300084010C591F4F84E6E82E80E0F82E10C053
:103F4000BB2021F0C6010E94C71F02C0F601849168
:103F5000F70180830894E11CF11C0894C11CD11C5A
:103F6000E016F10669F784E690E0682D06C0853713
:103F700009F001CF80E690E063E00E947B1EFBCE5B
:103F8000DC0101C06D9341505040E0F70895E19984
:103F9000FECF9FBB8EBBE09A99278DB30895262F45
:103FA000E199FECF9FBB8EBB2DBB0FB6F894E29A72
:0C3FB000E19A0FBE01960895F894FFCF2F
:043FBC001E9403004C
:0400000300003C00BD
:00000001FF
