:103800000C942A1C0C94D51C0C94E91C0C94471C99
:103810000C94471C0C94471C0C94471C0C94471C9C
:103820000C94471C0C94471C0C94471C0C94471C8C
:103830000C94471C0C94471C0C94471C0C94471C7C
:103840000C94471C0C94471C0C94471C0C94471C6C
:103850000C94471C11241FBECFE5D4E0DEBFCDBFC2
:1038600010E0A0E6B0E0E2EEFDE302C005900D92AC
:10387000A436B107D9F711E0A4E6B0E001C01D926B
:10388000A536B107E1F70E940D1D0C94EF1E0C94B4
:10389000001CF89481E08BBF1BBEDF9AD79A40E1F1
:1038A00020E030E08BB380588BBBC9010197F1F762
:1038B0004150C1F78FEF8BBBE0E0F0E00995089530
:1038C00080E090E8A0E7B0E004C00197A109B10949
:1038D00031F05F9BFACF0097A105B10539F48091D3
:1038E0006400882369F70E94491CEACF8CB10895CF
:1038F0001F93182F882321F00E94601C1150E1F7BC
:103900001F9108950F931F93DF93CF930F92CDB71D
:10391000DEB78C0169830E94601C6981803231F0BE
:103920000F90CF91DF911F910F9108955D9BFECF76
:1039300084E18CB9662389F0C801019661509C012D
:10394000260F311DF80140818C015D9BFECF4CB9E3
:103950008217930711F00196F5CF5D9BFECF80E1B2
:103960008CB90F90CF91DF911F910F91089545B7BA
:10397000982F990F23E030E002C0220F331F9A9551
:10398000E2F7922F9095942395BF95B7922B95BF10
:103990004BB790E0069621E030E002C0220F331FC3
:1039A0008A95E2F7422B4BBF08951F920F920FB6F4
:1039B0000F9211248F938BB78F7B8BBF81E0809305
:1039C0006400D998D19A8F910F900FBE0F901F90DD
:1039D00018951F920F920FB60F9211242F933F93B9
:1039E0004F935F936F937F938F939F93AF93BF9307
:1039F000EF93FF930E94491CFF91EF91BF91AF910C
:103A00009F918F917F916F915F914F913F912F91F6
:103A10000F900FBE0F901F901895DF93CF9300D09B
:103A20000F92CDB7DEB710BC8FE289B988E18AB9B1
:103A300086E880BD81E08BBF82E08BBF80E00E9482
:103A4000B71C81E00E94B71CD89AD09A40E151E09F
:103A500020E030E08BB385278BBBC9010197F1F7DC
:103A60004150C1F77894FF24F394E3E05E2EF5E033
:103A70004F2EA1E13A2E0E94601C803381F18133E8
:103A8000A1F1803409F45AC0813409F463C082344E
:103A900009F473C0853409F479C0803501F18135AA
:103AA00009F47DC08235D9F0863509F480C08535AA
:103AB00009F487C0843609F490C0843709F4D6C06D
:103AC000853709F417C18637B1F61982CE01019600
:103AD00061E00E94821C0E94601C803381F680E0BD
:103AE00090E060E00E94821CC6CF0E94601C803281
:103AF00011F65D9BFECF84E18CB95D9BFECF81E426
:103B00008CB95D9BFECF86E58CB95D9BFECF82E5CF
:103B10008CB95D9BFECF80E28CB95D9BFECF89E4C2
:103B20008CB95D9BFECF83E58CB95D9BFECF80E5B4
:103B30008CB95D9BFECF80E18CB99DCF0E94601C4B
:103B4000863868F20E94601C80E090E060E00E948D
:103B5000821C91CF0E94601C813809F4C9C0823850
:103B600009F4BEC0803809F0B0CF82E08983CE016D
:103B7000019661E00E94821C7ECF84E10E94781C45
:103B800080E090E060E00E94821C75CF85E00E949A
:103B9000781C80E090E060E00E94821C6CCF80E0A6
:103BA00090E060E00E94821C0E94491C64CF84E087
:103BB0000E94781C1982CE01019661E00E94821C4D
:103BC0008ACF0E94601C682E0E94601C782E80E0C4
:103BD00090E060E00E94821C4ECF0E94601CE82EA4
:103BE0000E94601CC82E0E94601C282E8C2C9E2CCB
:103BF00085E690E06FEF70E040E051E00E94D31E58
:103C00008114910481F0640175E6A72E70E0B72E4F
:103C10000E94601CF50181935F010894C108D108DE
:103C2000C114D104A9F7F5E42F1609F069C0811475
:103C3000910409F454CF630165E6A62E60E0B62E28
:103C4000C6010894C11CD11C3601F50161915F01C8
:103C50000E94E21E0894810891088114910481F762
:103C600080E090E060E00E94821C05CF0E94601C12
:103C7000A82E0E94601CC82E0E94601C853409F486
:103C80008FC0660C771CEE24CA82AB828A819B812E
:103C9000009701F163015C0125E6822E20E0922E5F
:103CA00012C0C6010E94DA1EF40180830894811CB0
:103CB000911C0894C11CD11C36010894A108B108BC
:103CC000A114B10439F0EE2061F7F6018491F401FA
:103CD0008083ECCF85E690E06A810E94821CCBCE87
:103CE00092E19983CE01019661E00E94821CC3CECD
:103CF00081E03CCF80E690E063E00E94821CBBCE76
:103D0000660C771CF0E88F16910418F440E8842EB6
:103D1000912CA5E6B0E06FB7F894E199FECFF301DE
:103D200050925700E89507B600FCFDCFAD01405812
:103D30005F4F9301225030402A1B3B0B8C9190E047
:103D400011961C91119700E0802B912B1296FD018A
:103D5000E20FF31F0C01F0925700E89511244A1767
:103D60005B0761F7F30140925700E89507B600FC46
:103D7000FDCF30925700E8956FBFDA0180E89FEFE2
:103D8000880E991EE0E8F0E06E0E7F1E811491040B
:103D900009F0C1CF80E090E060E00E94821C6BCE11
:103DA000EE24E39471CFDC0101C06D93415050408B
:103DB000E0F70895E199FECF9FBB8EBBE09A99276B
:103DC0008DB30895262FE199FECF9FBB8EBB2DBBEF
:103DD0000FB6F894E29AE19A0FBE01960895F8940E
:023DE000FFCF13
:043DE2001E94030028
:0400000300003800C1
:00000001FF
